{
  "contractName": "HelloWorld",
  "abi": [
    {
      "constant": true,
      "inputs": [],
      "name": "owner",
      "outputs": [
        {
          "name": "",
          "type": "address"
        }
      ],
      "payable": false,
      "stateMutability": "view",
      "type": "function"
    },
    {
      "inputs": [],
      "payable": false,
      "stateMutability": "nonpayable",
      "type": "constructor"
    },
    {
      "constant": false,
      "inputs": [],
      "name": "increment",
      "outputs": [
        {
          "name": "",
          "type": "uint256"
        }
      ],
      "payable": false,
      "stateMutability": "nonpayable",
      "type": "function"
    },
    {
      "constant": true,
      "inputs": [],
      "name": "sayHello",
      "outputs": [
        {
          "name": "",
          "type": "string"
        }
      ],
      "payable": false,
      "stateMutability": "view",
      "type": "function"
    }
  ],
  "bytecode": "0x608060405234801561001057600080fd5b50336000806101000a81548173ffffffffffffffffffffffffffffffffffffffff021916908373ffffffffffffffffffffffffffffffffffffffff16021790555060006001819055506109e9806100686000396000f300608060405260043610610057576000357c0100000000000000000000000000000000000000000000000000000000900463ffffffff1680638da5cb5b1461005c578063d09de08a146100b3578063ef5fb05b146100de575b600080fd5b34801561006857600080fd5b5061007161016e565b604051808273ffffffffffffffffffffffffffffffffffffffff1673ffffffffffffffffffffffffffffffffffffffff16815260200191505060405180910390f35b3480156100bf57600080fd5b506100c8610193565b6040518082815260200191505060405180910390f35b3480156100ea57600080fd5b506100f36101af565b6040518080602001828103825283818151815260200191508051906020019080838360005b83811015610133578082015181840152602081019050610118565b50505050905090810190601f1680156101605780820380516001836020036101000a031916815260200191505b509250505060405180910390f35b6000809054906101000a900473ffffffffffffffffffffffffffffffffffffffff1681565b6000600160008154809291906001019190505550600154905090565b606060006060803392506101c28361027a565b915061026f6040805190810160405280600581526020017f48656c6c6f0000000000000000000000000000000000000000000000000000008152506040805190810160405280600181526020017f2000000000000000000000000000000000000000000000000000000000000000815250846040805190810160405280600181526020017f210000000000000000000000000000000000000000000000000000000000000081525061048f565b905080935050505090565b60608060008060008060286040519080825280601f01601f1916602001820160405280156102b75781602001602082028038833980820191505090505b509450600093505b6014841015610482578360130360080260020a8773ffffffffffffffffffffffffffffffffffffffff168115156102f257fe5b047f01000000000000000000000000000000000000000000000000000000000000000292506010837f0100000000000000000000000000000000000000000000000000000000000000900460ff1681151561034957fe5b047f0100000000000000000000000000000000000000000000000000000000000000029150817f01000000000000000000000000000000000000000000000000000000000000009004601002837f01000000000000000000000000000000000000000000000000000000000000009004037f01000000000000000000000000000000000000000000000000000000000000000290506103e7826104b8565b85856002028151811015156103f857fe5b9060200101907effffffffffffffffffffffffffffffffffffffffffffffffffffffffffffff1916908160001a905350610431816104b8565b856001866002020181518110151561044557fe5b9060200101907effffffffffffffffffffffffffffffffffffffffffffffffffffffffffffff1916908160001a90535083806001019450506102bf565b8495505050505050919050565b60606104ae8585858560206040519081016040528060008152506105a8565b9050949350505050565b6000600a7f010000000000000000000000000000000000000000000000000000000000000002827effffffffffffffffffffffffffffffffffffffffffffffffffffffffffffff19161015610557576030827f01000000000000000000000000000000000000000000000000000000000000009004017f01000000000000000000000000000000000000000000000000000000000000000290506105a3565b6057827f01000000000000000000000000000000000000000000000000000000000000009004017f01000000000000000000000000000000000000000000000000000000000000000290505b919050565b6060806060806060806060806000808e98508d97508c96508b95508a94508451865188518a518c51010101016040519080825280601f01601f1916602001820160405280156106065781602001602082028038833980820191505090505b50935083925060009150600090505b88518110156106c857888181518110151561062c57fe5b9060200101517f010000000000000000000000000000000000000000000000000000000000000090047f010000000000000000000000000000000000000000000000000000000000000002838380600101945081518110151561068b57fe5b9060200101907effffffffffffffffffffffffffffffffffffffffffffffffffffffffffffff1916908160001a9053508080600101915050610615565b600090505b87518110156107805787818151811015156106e457fe5b9060200101517f010000000000000000000000000000000000000000000000000000000000000090047f010000000000000000000000000000000000000000000000000000000000000002838380600101945081518110151561074357fe5b9060200101907effffffffffffffffffffffffffffffffffffffffffffffffffffffffffffff1916908160001a90535080806001019150506106cd565b600090505b865181101561083857868181518110151561079c57fe5b9060200101517f010000000000000000000000000000000000000000000000000000000000000090047f01000000000000000000000000000000000000000000000000000000000000000283838060010194508151811015156107fb57fe5b9060200101907effffffffffffffffffffffffffffffffffffffffffffffffffffffffffffff1916908160001a9053508080600101915050610785565b600090505b85518110156108f057858181518110151561085457fe5b9060200101517f010000000000000000000000000000000000000000000000000000000000000090047f01000000000000000000000000000000000000000000000000000000000000000283838060010194508151811015156108b357fe5b9060200101907effffffffffffffffffffffffffffffffffffffffffffffffffffffffffffff1916908160001a905350808060010191505061083d565b600090505b84518110156109a857848181518110151561090c57fe5b9060200101517f010000000000000000000000000000000000000000000000000000000000000090047f010000000000000000000000000000000000000000000000000000000000000002838380600101945081518110151561096b57fe5b9060200101907effffffffffffffffffffffffffffffffffffffffffffffffffffffffffffff1916908160001a90535080806001019150506108f5565b829950505050505050505050959450505050505600a165627a7a72305820c0227f840d0633c60483012f805dff0803947949633459c8d7d794f54ee90d2c0029",
  "source": "pragma solidity ^0.4.23;\n\nimport { Utilities } from \"./Utilities.sol\";\n\ncontract HelloWorld is Utilities {\n  address public owner;\n  uint counter;\n\n  constructor() public {\n    owner = msg.sender;\n    counter = 0;\n  }\n\n  function increment() public returns (uint) {\n    counter++;\n    return counter;\n  }\n\n  function sayHello() public view returns (string) {\n    address sender = msg.sender;\n    string memory senderAsString = toAsciiString(sender);\n    string memory greeting = strConcat(\"Hello\", \" \", senderAsString, \"!\");\n    return greeting;\n  }\n}\n",
  "sourcePath": "D:\\BlockchainExperiments\\contracts\\HelloWorld.sol",
  "compiler": {
    "name": "solc",
    "version": "0.4.24+commit.e67f0147.Emscripten.clang"
  },
  "schemaVersion": "2.0.0",
  "updatedAt": "2018-05-28T15:28:33.300Z"
}