{
  "contractName": "HelloWorld",
  "abi": [
    {
      "constant": true,
      "inputs": [],
      "name": "owner",
      "outputs": [
        {
          "name": "",
          "type": "address"
        }
      ],
      "payable": false,
      "stateMutability": "view",
      "type": "function"
    },
    {
      "inputs": [],
      "payable": false,
      "stateMutability": "nonpayable",
      "type": "constructor"
    },
    {
      "constant": false,
      "inputs": [
        {
          "name": "name",
          "type": "string"
        }
      ],
      "name": "sayHello",
      "outputs": [
        {
          "name": "",
          "type": "string"
        }
      ],
      "payable": false,
      "stateMutability": "nonpayable",
      "type": "function"
    },
    {
      "constant": true,
      "inputs": [],
      "name": "countHellos",
      "outputs": [
        {
          "name": "",
          "type": "uint256"
        }
      ],
      "payable": false,
      "stateMutability": "view",
      "type": "function"
    },
    {
      "constant": true,
      "inputs": [],
      "name": "listHellos",
      "outputs": [
        {
          "name": "",
          "type": "string"
        }
      ],
      "payable": false,
      "stateMutability": "view",
      "type": "function"
    },
    {
      "constant": true,
      "inputs": [],
      "name": "loopInfinitively",
      "outputs": [
        {
          "name": "",
          "type": "string"
        }
      ],
      "payable": false,
      "stateMutability": "view",
      "type": "function"
    }
  ],
  "bytecode": "0x608060405234801561001057600080fd5b50336000806101000a81548173ffffffffffffffffffffffffffffffffffffffff021916908373ffffffffffffffffffffffffffffffffffffffff1602179055506111f7806100606000396000f30060806040526004361061006d576000357c0100000000000000000000000000000000000000000000000000000000900463ffffffff168063168228b8146100725780632b139f0f1461009d57806353d41c0b1461012d5780638da5cb5b146101bd578063c3a9b1c514610214575b600080fd5b34801561007e57600080fd5b506100876102f6565b6040518082815260200191505060405180910390f35b3480156100a957600080fd5b506100b2610303565b6040518080602001828103825283818151815260200191508051906020019080838360005b838110156100f25780820151818401526020810190506100d7565b50505050905090810190601f16801561011f5780820380516001836020036101000a031916815260200191505b509250505060405180910390f35b34801561013957600080fd5b50610142610348565b6040518080602001828103825283818151815260200191508051906020019080838360005b83811015610182578082015181840152602081019050610167565b50505050905090810190601f1680156101af5780820380516001836020036101000a031916815260200191505b509250505060405180910390f35b3480156101c957600080fd5b506101d26105e3565b604051808273ffffffffffffffffffffffffffffffffffffffff1673ffffffffffffffffffffffffffffffffffffffff16815260200191505060405180910390f35b34801561022057600080fd5b5061027b600480360381019080803590602001908201803590602001908080601f0160208091040260200160405190810160405280939291908181526020018383808284378201915050505050509192919290505050610608565b6040518080602001828103825283818151815260200191508051906020019080838360005b838110156102bb5780820151818401526020810190506102a0565b50505050905090810190601f1680156102e85780820380516001836020036101000a031916815260200191505b509250505060405180910390f35b6000600180549050905090565b606080600060206040519081016040528060008152509150600090505b60016000101561034057610339818060010192506107a6565b9150610320565b819250505090565b60608060006103556110ee565b600060608060608060206040519081016040528060008152509750600096505b6001805490508710156105d55760018781548110151561039157fe5b9060005260206000209060030201606060405190810160405290816000820160009054906101000a900473ffffffffffffffffffffffffffffffffffffffff1673ffffffffffffffffffffffffffffffffffffffff1673ffffffffffffffffffffffffffffffffffffffff168152602001600182018054600181600116156101000203166002900480601f01602080910402602001604051908101604052809291908181526020018280546001816001161561010002031660029004801561049a5780601f1061046f5761010080835404028352916020019161049a565b820191906000526020600020905b81548152906001019060200180831161047d57829003601f168201915b50505050508152602001600282015481525050955085600001519450856020015193506104ca86604001516107a6565b92506104d58561092c565b9150610584846040805190810160405280600281526020017f2028000000000000000000000000000000000000000000000000000000000000815250846040805190810160405280600481526020017f2061742000000000000000000000000000000000000000000000000000000000815250876040805190810160405280600181526020017f2900000000000000000000000000000000000000000000000000000000000000815250610b41565b90506105c688826040805190810160405280600281526020017f2c20000000000000000000000000000000000000000000000000000000000000815250610b6a565b97508680600101975050610375565b879850505050505050505090565b6000809054906101000a900473ffffffffffffffffffffffffffffffffffffffff1681565b6060600060608033925061061b8361092c565b91506106c96040805190810160405280600681526020017f48656c6c6f200000000000000000000000000000000000000000000000000000815250866040805190810160405280600281526020017f2028000000000000000000000000000000000000000000000000000000000000815250856040805190810160405280600181526020017f2900000000000000000000000000000000000000000000000000000000000000815250610ba2565b905060016060604051908101604052808573ffffffffffffffffffffffffffffffffffffffff168152602001878152602001428152509080600181540180825580915050906001820390600052602060002090600302016000909192909190915060008201518160000160006101000a81548173ffffffffffffffffffffffffffffffffffffffff021916908373ffffffffffffffffffffffffffffffffffffffff160217905550602082015181600101908051906020019061078d929190611126565b5060408201518160020155505050809350505050919050565b60606000806000606060008060008814156107f8576040805190810160405280600181526020017f30000000000000000000000000000000000000000000000000000000000000008152509650610921565b8795505b60008614151561081e5784806001019550506004869060020a900495506107fc565b600f9350846040519080825280601f01601f1916602001820160405280156108555781602001602082028038833980820191505090505b5092506001850391505b60008814151561091d578388169050600981116108a157806030017f0100000000000000000000000000000000000000000000000000000000000000026108c8565b806037017f0100000000000000000000000000000000000000000000000000000000000000025b8383806001900394508151811015156108dd57fe5b9060200101907effffffffffffffffffffffffffffffffffffffffffffffffffffffffffffff1916908160001a9053506004889060020a9004975061085f565b8296505b505050505050919050565b60608060008060008060286040519080825280601f01601f1916602001820160405280156109695781602001602082028038833980820191505090505b509450600093505b6014841015610b34578360130360080260020a8773ffffffffffffffffffffffffffffffffffffffff168115156109a457fe5b047f01000000000000000000000000000000000000000000000000000000000000000292506010837f0100000000000000000000000000000000000000000000000000000000000000900460ff168115156109fb57fe5b047f0100000000000000000000000000000000000000000000000000000000000000029150817f01000000000000000000000000000000000000000000000000000000000000009004601002837f01000000000000000000000000000000000000000000000000000000000000009004037f0100000000000000000000000000000000000000000000000000000000000000029050610a9982610fb7565b8585600202815181101515610aaa57fe5b9060200101907effffffffffffffffffffffffffffffffffffffffffffffffffffffffffffff1916908160001a905350610ae381610fb7565b8560018660020201815181101515610af757fe5b9060200101907effffffffffffffffffffffffffffffffffffffffffffffffffffffffffffff1916908160001a9053508380600101945050610971565b8495505050505050919050565b606080610b4e88886110a7565b9050610b5d8187878787610ba2565b9150509695505050505050565b6060610b9984848460206040519081016040528060008152506020604051908101604052806000815250610ba2565b90509392505050565b6060806060806060806060806000808e98508d97508c96508b95508a94508451865188518a518c51010101016040519080825280601f01601f191660200182016040528015610c005781602001602082028038833980820191505090505b50935083925060009150600090505b8851811015610cc2578881815181101515610c2657fe5b9060200101517f010000000000000000000000000000000000000000000000000000000000000090047f0100000000000000000000000000000000000000000000000000000000000000028383806001019450815181101515610c8557fe5b9060200101907effffffffffffffffffffffffffffffffffffffffffffffffffffffffffffff1916908160001a9053508080600101915050610c0f565b600090505b8751811015610d7a578781815181101515610cde57fe5b9060200101517f010000000000000000000000000000000000000000000000000000000000000090047f0100000000000000000000000000000000000000000000000000000000000000028383806001019450815181101515610d3d57fe5b9060200101907effffffffffffffffffffffffffffffffffffffffffffffffffffffffffffff1916908160001a9053508080600101915050610cc7565b600090505b8651811015610e32578681815181101515610d9657fe5b9060200101517f010000000000000000000000000000000000000000000000000000000000000090047f0100000000000000000000000000000000000000000000000000000000000000028383806001019450815181101515610df557fe5b9060200101907effffffffffffffffffffffffffffffffffffffffffffffffffffffffffffff1916908160001a9053508080600101915050610d7f565b600090505b8551811015610eea578581815181101515610e4e57fe5b9060200101517f010000000000000000000000000000000000000000000000000000000000000090047f0100000000000000000000000000000000000000000000000000000000000000028383806001019450815181101515610ead57fe5b9060200101907effffffffffffffffffffffffffffffffffffffffffffffffffffffffffffff1916908160001a9053508080600101915050610e37565b600090505b8451811015610fa2578481815181101515610f0657fe5b9060200101517f010000000000000000000000000000000000000000000000000000000000000090047f0100000000000000000000000000000000000000000000000000000000000000028383806001019450815181101515610f6557fe5b9060200101907effffffffffffffffffffffffffffffffffffffffffffffffffffffffffffff1916908160001a9053508080600101915050610eef565b82995050505050505050505095945050505050565b6000600a7f010000000000000000000000000000000000000000000000000000000000000002827effffffffffffffffffffffffffffffffffffffffffffffffffffffffffffff19161015611056576030827f01000000000000000000000000000000000000000000000000000000000000009004017f01000000000000000000000000000000000000000000000000000000000000000290506110a2565b6057827f01000000000000000000000000000000000000000000000000000000000000009004017f01000000000000000000000000000000000000000000000000000000000000000290505b919050565b60606110e68383602060405190810160405280600081525060206040519081016040528060008152506020604051908101604052806000815250610ba2565b905092915050565b606060405190810160405280600073ffffffffffffffffffffffffffffffffffffffff16815260200160608152602001600081525090565b828054600181600116156101000203166002900490600052602060002090601f016020900481019282601f1061116757805160ff1916838001178555611195565b82800160010185558215611195579182015b82811115611194578251825591602001919060010190611179565b5b5090506111a291906111a6565b5090565b6111c891905b808211156111c45760008160009055506001016111ac565b5090565b905600a165627a7a723058204d43bf824b94399ab4cdb8a0865767a626cfcd64340686c526bf851b30ca81120029",
  "source": "pragma solidity ^0.4.23;\n\nimport { Utilities } from \"./Utilities.sol\";\n\ncontract HelloWorld is Utilities {\n  address public owner;\n\n  struct Greeting {\n    address sender;\n    string name;\n    uint timestamp;\n  }\n\n  Greeting[] greetings;\n\n  constructor() public {\n    owner = msg.sender;\n  }\n\n  function sayHello(string name) public returns (string) {\n    address sender = msg.sender;\n    string memory senderAsString = toAsciiString(sender);\n    string memory helloSender = strConcat(\"Hello \", name, \" (\", senderAsString, \")\");\n\n    greetings.push(Greeting({\n      name: name,\n      sender: sender,\n      timestamp: block.timestamp\n    }));\n\n    return helloSender;\n  }\n\n  function countHellos() public view returns (uint) {\n    return greetings.length;\n  }\n\n  function listHellos() public view returns (string) {\n    string memory greetedNamesAndAddresses = '';\n\n    for (uint i = 0; i < greetings.length; i++) {\n      Greeting memory greeted = greetings[i];\n      address sender = greeted.sender;\n      string memory name = greeted.name;\n      string memory time = uintToHexstr(greeted.timestamp);\n      string memory senderAsString = toAsciiString(sender);\n      string memory greetedNameAndAddress = strConcat(name, \" (\", senderAsString, \" at \", time, \")\"); \n      \n      greetedNamesAndAddresses = strConcat(greetedNamesAndAddresses, greetedNameAndAddress, \", \");\n    }\n\n    return greetedNamesAndAddresses;\n  }\n\n  function loopInfinitively() public view returns (string) {\n    string memory s = '';\n    uint counter = 0;\n    while(0 < 1) {\n      s = uintToHexstr(counter++);\n    }\n    return s;\n  }\n}\n",
  "sourcePath": "D:\\SolidityExperiments\\contracts\\HelloWorld.sol",
  "compiler": {
    "name": "solc",
    "version": "0.4.24+commit.e67f0147.Emscripten.clang"
  },
  "schemaVersion": "2.0.0",
  "updatedAt": "2018-05-29T09:04:42.616Z"
}